:02000000B02826
:10000800FF00030E8301AB000A08AC008A017008E8
:10001800A3007B08A2007C08A1007D08A0008B1C1F
:100028008E288B10061C8E28861E8D2807181F28E0
:1000380087181F285428071C232812308700051406
:1000480085100330A4000030A50080302506F0009C
:1000580080307002031D322800302402031C492816
:10006800240888000630FB001330FC00AD30FD008A
:10007800FD0B3C28FC0B3C28FB0B3C280000000037
:100088000130A402031CA5032928851444308700E5
:100098000330A600061C5328861E53284E288D2898
:1000A800071B5928871A59288D28071F5D282430CF
:1000B8008700851405100330A4000030A5008030A7
:1000C8002506F00080307002031D6C2800302402E1
:1000D800031C8328240888000630FB001330FC002A
:1000E800AD30FD00FD0B7628FC0B7628FB0B76283F
:1000F800000000000130A402031CA50363280514B6
:10010800113087000230A600061C8D28861E8D2817
:10011800882816282308F0002208FB002108FC0084
:100128002008FD002C088A002B0E8300FF0E7F0E8E
:020138000900BC
:0E013A00831203132A088A0029088200080095
:100148009D208A110A128000840AA90A0319AA0AA2
:08015800F003031DA4280800B8
:1001600083120313A401A501A601A701A80106306B
:1001700083169F00850183128501831687018312F0
:10018000870183168801FF308312880083160614C6
:1001900086168312061CCD28C9282608003A0319A2
:1001A000D6282608023A0319D628462985010716BB
:1001B00007142330A7000030A80080302806F00084
:1001C00080307002031DE62800302702031C4529F9
:1001D0008030F000803028067002031DF1282708C7
:1001E0001F3C031CFF2880302806F000803070027E
:1001F000031DFC281A302702031CFF281729803012
:10020000F000803028067002031D082927080F3CE3
:10021000031C162980302806F00080307002031D70
:1002200013290A302702031C1629172918294029E7
:1002300000302806031D1E2903302706031D22292E
:1002400007108714270888000130A6000630FB003D
:100250001330FC00AD30FD00FD0B2C29FC0B2C29CC
:10026000FB0B2C2900000000061C3A290B168316F4
:1002700001178B1783122608013A031940294529D3
:100280000130A702031CA803DD28A5292608013A8E
:1002900003194F292608033A03194F29A529850177
:1002A0008701071707151530A7000030A800803018
:1002B0002806F00080307002031D602900302702FC
:1002C000031CA5298030F000803028067002031D31
:1002D0006B2927080F3C031C792980302806F00081
:1002E00080307002031D76290A302702031C792909
:1002F000A02900302806031D7F2903302706031D8F
:1003000083290713871627088800A6010630FB00FB
:100310001330FC00AD30FD00FD0B8C29FC0B8C294B
:10032000FB0B8C2900000000061C9A290B16831673
:1003300001178B1783122608003A0319A029A52953
:100340000130A702031CA80357298701CD28A7293C
:02400E004A2F37
:00000001FF
